:040000000E070000E7
:040001000F070000E5
:040002000E070000E5
:040003000C070000E6
:0400040006000433BB
:0400050006000433BA
:0400060006000533B8
:04000700060020428D
:04000800060023C209
:04000900060040802D
:04000A00060060008C
:04000B0006030400E4
:04000C0006060000E4
:04000D0006064000A3
:04000E0006020400E2
:04000F0006040000E3
:04001000079900004C
:04001100079940000B
:040012000799000842
:040013000799400801
:040014000F170000C2
:040015000F9F000039
:040016000F070000D0
:0400170006010000DE
:0400180007190000C4
:040019000665000078
:04001A000665400037
:04001B00066500086E
:04001C00066540082D
:04001D000E6700006A
:04001E0006050008CB
:04001F0000000000DD
:0400200000000000DC
:0400210000000000DB
:0400220000000000DA
:0400230000000000D9
:0400240000000000D8
:0400250000000000D7
:0400260000000000D6
:0400270000000000D5
:00000001FF
